S00F000061737369676E342E737265635C
S11300000030002031010000C1000000C5000000E4
S1130010C1000000C1000000C1000000C1000000D8
S1130020C1000000C1000000C1000000C1000000C8
S1130030C1000000C1000000C100000091050000E3
S1130040C1000000C1000000C1000000C1000000A8
S1130050C1000000C1000000C1000000C100000098
S1130060C1000000C1000000C1000000C100000088
S1130070C1000000C1000000C1000000C100000078
S1130080C1000000C1000000C1000000C100000068
S1130090C1000000C1000000C1000000C100000058
S11300A0C1000000C1000000C1000000C100000048
S11300B0C1000000C1000000C1000000C100000038
S11300C0FEE7C046FEE7C04680231249124A9B0160
S11300D0885810B503438B50104B11495A680224B9
S11300E00A405A608022596852000A435A600D4AF5
S11300F05069A04350615968214359600221136932
S11301001942FCD00349044A07488B5803408B50DA
S113011010BDC046007004403810000000D00440F8
S1130120FFF8FFFF00F10F40FFDFFFFFC046C046AE
S1130130FFF7CAFF364A374B37499A608022374B5C
S11301409200585802435A50354A364999501A6811
S113015035490A4080211A60344A490298580143BB
S113016099509958324808408021490401439950D4
S1130170304B3148996C01409964DA6C002102409B
S1130180DA6424222D4B19702D4B5A7074321A7074
S1130190D878793A0240DA7001221A715971103113
S11301A09A791142FCD10C21254A93790B40082BF2
S11301B0FBD1402138335371214A93791942FCD041
S11301C0182313700C221E498B7913400C2BFBD17E
S11301D01C4B1D4A93420CD2D9438918002289082A
S11301E001311A48890084589C5004328A42FAD159
S11301F09B18174A934208D80321D21A8A43002134
S1130200181D121802C39342FCD100F001F9C04634
S11302100000000000ED00E0381000000070044011
S11302204410000000000110FFFFF3FF0410000061
S1130230FFFFFFFC00900440FFF8FFFE0050064063
S11302400040064000F0FF1F04F0FF1F7408000088
S113025006F0FF1F00000000000000000000000086
S1130260000000000000000000000000000000008A
S1130270000000000000000000000000000000007A
S1130280000000000000000000000000000000006A
S1130290000000000000000000000000000000005A
S11302A0000000000000000000000000000000004A
S11302B0000000000000000000000000000000003A
S11302C0000000000000000000000000000000002A
S11302D0000000000000000000000000000000001A
S11302E0000000000000000000000000000000000A
S11302F000000000000000000000000000000000FA
S113030000000000000000000000000000000000E9
S113031000000000000000000000000000000000D9
S113032000000000000000000000000000000000C9
S113033000000000000000000000000000000000B9
S113034000000000000000000000000000000000A9
S11303500000000000000000000000000000000099
S11303600000000000000000000000000000000089
S11303700000000000000000000000000000000079
S11303800000000000000000000000000000000069
S11303900000000000000000000000000000000059
S11303A00000000000000000000000000000000049
S11303B00000000000000000000000000000000039
S11303C00000000000000000000000000000000029
S11303D00000000000000000000000000000000019
S11303E00000000000000000000000000000000009
S11303F000000000000000000000000000000000F9
S1130400FFFFFFFFFFFFFFFFFFFFFFFF7EF7FFFF81
S1130410F0B5DE4657464E464546E0B583B072B663
S113042000F08EF800F0A0F800F00AF900F0B6F839
S113043062B6002301933D4B00249946F423FF3315
S11304409B463B4B3B4D98463B4B01AE9A4630BFD7
S113045000F094F80028FAD02F78002F16D0012F3E
S11304602CD1B2787178307800F092F900F0B8F8B5
S11304700024002800D02C7000F06AF830BF00F08F
S11304807DF80028E3D02F78002FE8D10134A4B2FE
S11304905C4516D9444523D954453AD9274B9C4247
S11304A02AD8072000F07EF900F0A2F80028E3D053
S11304B001234A462B7001331370DDE701232B70AF
S11304C0DAE7012000F06EF900F092F80028D3D0AA
S11304D001232B704B461A78B35C1033B354CBE72B
S11304E0052000F05FF900F083F80028C4D0012350
S11304F02B704B461F70BFE7002000F053F900F04B
S113050077F80028B8D001232B7000233780B3700C
S1130510B2E7062000F046F900F06AF80028ABD0F4
S113052001234A462B701370A6E7C04604F0FF1F50
S1130530E703000000F0FF1FDB050000CF07000009
S113054088230C21014A5B01D1507047007004409C
S11305505521034A034BD1505531D1507047C04601
S113056000700440041100000722024B1A60024A82
S11305705A60704710E000E080BB0000034B18781D
S1130580C0B2002801D000221A70704705F0FF1F86
S11305900122014B1A70704705F0FF1F80230A499E
S11305A00A4A9B00885803438B500949094A0B6D3A
S11305B01A4080235B001343074A0B6553690749BC
S11305C00B4053617047C04600700440381000006F
S11305D000900440FFF8F0FF00F00F40FFFFEFFF32
S11305E00120024B1B691B0D9843704700F00F401C
S11305F0024B1869C002C00F7047C04600F00F409C
S11306008022064952030B691342FCD1802203491C
S113061052030B691342FCD07047C04600F00F40F0
S11306208022064952030B691342FCD080220349FD
S113063052030B691342FCD17047C04600F00F40CF
S113064080212D4B2D4AF0B59858C64649042424E0
S113065001430020802500B5294E99502949ED0415
S113066008608E604C6188619F583D439D50264AC6
S1130670C02510609660D460106154619061086870
S11306801C3C204308601168204E214311608021E6
S11306901F4AC90098581F4C08439850A06CAD00DD
S11306A030402843A0641C48A8464769BC468027BC
S11306B06546FF022F43454647619F580F439F50AD
S11306C0E76C37403D43E5648024456924032C43AB
S11306D0446180209C584001204398500F4A53683D
S11306E033401943516002210D4A53690B4353614E
S11306F004BC9046F0BDC046007004403C100000AD
S1130700EF0F00000080034000A00340FFF8F0FF5B
S11307103810000000A0044040F00F4000C0044026
S1130720C0F00F40014B18617047C04600A0034061
S1130730014B98617047C04600A00340014B98618B
S11307407047C04600800340FF22014B1A61704786
S113075000A00340FF22014B9A61704700A00340B0
S1130760FF22014B9A617047008003400022014B35
S11307701A61704700A003400022014B9A61704740
S113078000A003400022014B9A617047008003409F
S1130790024B18619961024B9A61704700A00340B3
S11307A00080034008280AD8204B80001B589F462D
S11307B000231F4A136193611E4A93617047FF230C
S11307C01B4A136193611B4A9361F7E70023FF21DE
S11307D0174A13619161174A9361EFE70022144BA2
S11307E01A619A61134BFF329A61E7E70023104ABA
S11307F01361FF3393610F4A9361DFE7FF23002105
S11308000B4A136191610B4A9361D7E7FF22084BAE
S11308101A619A610022074B9A61CFE7FF23044AC9
S1130820136100239361034A9361C7E750080000F2
S113083000A00340008003400023034A1361936136
S1130840024A93617047C04600A003400080034001
S1130850B0070000BE070000EC070000FC07000022
S11308600C0800001C080000CC070000DC07000096
S1070870B0070000C9
S1070874010000007B
S9030131CA
