S00D000046696E616C2E737265632D
S11300000030002031010000C1000000C5000000E4
S1130010C1000000C1000000C1000000C1000000D8
S1130020C1000000C1000000C1000000C1000000C8
S1130030C1000000C1000000C1000000D5040000A0
S1130040C1000000C1000000C1000000C1000000A8
S1130050C1000000C1000000C1000000C100000098
S1130060C1000000C1000000C1000000C100000088
S1130070C1000000C1000000C1000000C100000078
S1130080C1000000C1000000C1000000C100000068
S1130090C1000000C1000000C1000000C100000058
S11300A0C1000000C1000000C1000000C100000048
S11300B0C1000000C100000071040000C100000084
S11300C0FEE7C046FEE7C04680231249124A9B0160
S11300D0885810B503438B50104B11495A680224B9
S11300E00A405A608022596852000A435A600D4AF5
S11300F05069A04350615968214359600221136932
S11301001942FCD00349044A07488B5803408B50DA
S113011010BDC046007004403810000000D00440F8
S1130120FFF8FFFF00F10F40FFDFFFFFC046C046AE
S1130130FFF7CAFF88220021364B520199503648F6
S1130140364A90608022364892001C5822431A5046
S1130150344A354898501A683448024080201A605E
S1130160334A40029C58204398509858314C0440DC
S113017080204004204398502F4B304C986C2040F2
S11301809864DA6C2240DA6424222D4B19702D4BCA
S11301905A7074321A70D878793A0240DA700122AF
S11301A01A71597110319A791142FCD10C21254AE6
S11301B093790B40082BFBD1402138335371214AEA
S11301C093791942FCD0182313700C221D498B79A2
S11301D013400C2BFBD11C4B1C4A93420CD2D94329
S11301E089180022890801311948890084589C50D3
S11301F004328A42FAD19B18164A934208D8032142
S1130200D21A8A430021181D121802C39342FCD14A
S113021000F0FEF8007004400000000000ED00E073
S1130220381000004410000000000110FFFFF3FF2D
S113023004100000FFFFFFFC00900440FFF8FFFEE5
S1130240005006400040064000F0FF1F00F0FF1F72
S1130250240D000003F0FF1F000000000000000058
S1130260000000000000000000000000000000008A
S1130270000000000000000000000000000000007A
S1130280000000000000000000000000000000006A
S1130290000000000000000000000000000000005A
S11302A0000000000000000000000000000000004A
S11302B0000000000000000000000000000000003A
S11302C0000000000000000000000000000000002A
S11302D0000000000000000000000000000000001A
S11302E0000000000000000000000000000000000A
S11302F000000000000000000000000000000000FA
S113030000000000000000000000000000000000E9
S113031000000000000000000000000000000000D9
S113032000000000000000000000000000000000C9
S113033000000000000000000000000000000000B9
S113034000000000000000000000000000000000A9
S11303500000000000000000000000000000000099
S11303600000000000000000000000000000000089
S11303700000000000000000000000000000000079
S11303800000000000000000000000000000000069
S11303900000000000000000000000000000000059
S11303A00000000000000000000000000000000049
S11303B00000000000000000000000000000000039
S11303C00000000000000000000000000000000029
S11303D00000000000000000000000000000000019
S11303E00000000000000000000000000000000009
S11303F000000000000000000000000000000000F9
S1130400FFFFFFFFFFFFFFFFFFFFFFFF7EF7FFFF81
S113041070B572B600F036F800F048F800F060F8F5
S113042000F088F962B601222A213A2000F080FA0D
S113043000F0E0F8802000F0D1F80B4D0B4C30BFF9
S113044000F03EF80028FAD001213A2000F00AFA20
S11304502870207800F0B6F800F01CF830BF00F0E7
S11304602FF80028EBD0EFE702F0FF1F01F0FF1F89
S1130470024B1A78024B1A707047C04602F0FF1FF5
S113048001F0FF1F88230C21014A5B01D150704702
S1130490007004405521034A034BD1505531D150CB
S11304A07047C04600700440041100000722024B4C
S11304B01A60024A5A60704710E000E080BB0000F6
S11304C0034B1878C0B2002801D000221A7070477C
S11304D000F0FF1F0122014B1A70704700F0FF1F4C
S11304E080212D4B2D4AF0B59858C6464904242442
S11304F001430020802500B5294E99502949ED0477
S113050008608E604C6188619F583D439D50264A27
S1130510C02510609660D4601061546190610868D1
S11305201C3C204308601168204E21431160802147
S11305301F4AC90098581F4C08439850A06CAD003E
S113054030402843A0641C48A8464769BC4680271D
S11305506546FF022F43454647619F580F439F500E
S1130560E76C37403D43E5648024456924032C430C
S1130570446180209C584001204398500F4A53689E
S113058033401943516002210D4A53690B435361AF
S113059004BC9046F0BDC046007004403C1000000E
S11305A0EF0F00000080034000A00340FFF8F0FFBD
S11305B03810000000A0044040F00F4000C0044088
S11305C0C0F00F40014B18617047C04600A00340C3
S11305D0014B98617047C04600A00340014B9861ED
S11305E07047C04600800340FF22014B1A617047E8
S11305F000A00340FF22014B9A61704700A0034012
S1130600FF22014B9A617047008003400022014B96
S11306101A61704700A003400022014B9A617047A1
S113062000A003400022014B9A6170470080034000
S1130630024B18619961024B9A61704700A0034014
S11306400080034008280AD8204B80001B589F468E
S113065000231F4A136193611E4A93617047FF236D
S11306601B4A136193611B4A9361F7E70023FF213F
S1130670174A13619161174A9361EFE70022144B03
S11306801A619A61134BFF329A61E7E70023104A1B
S11306901361FF3393610F4A9361DFE7FF23002166
S11306A00B4A136191610B4A9361D7E7FF22084B10
S11306B01A619A610022074B9A61CFE7FF23044A2B
S11306C0136100239361034A9361C7E7DC0C0000C4
S11306D000A00340008003400023034A1361936198
S11306E0024A93617047C04600A003400080034063
S11306F080230A490A4A9B00885803438B500949BE
S1130700094A0B6D1A4080235B001343074A0B65AB
S1130710536907490B4053617047C0460070044059
S11307203810000000900440FFF8F0FF00F00F4084
S1130730FFFFEFFF80231049104A9B0088580343B2
S11307408B500F490F4A0B6DC7201A400E4B800087
S113075013430E4A0B6553690D490B4053618022C4
S11307600C4BD2051A601A580B4911408022D2034F
S11307700A431A507047C046007004403810000005
S113078000900440FFF8F0FF00010A0000F00F4061
S1130790FFFFEFFF00E100E0FFFF00FF0120024B3D
S11307A01B691B0D9843704700F00F40024B1869FA
S11307B0C002C00F7047C04600F00F4080220649B7
S11307C052030B691342FCD18022034952030B6983
S11307D01342FCD07047C04600F00F408022064907
S11307E052030B691342FCD08022034952030B6964
S11307F01342FCD17047C04600F00F404020134B19
S1130800134910B55A5802435A5080221149920193
S1130810585802435A50A0210F4A1048136EC90079
S113082003400B431366536E0340194351660F2272
S113083020210B4B5A705A790A4380215A719A78B5
S11308400A439A7000F0F8F910BDC04600700440E5
S1130850341000003810000000D00440FFF8FFFFFF
S113086000600640F8B5314C0500E3780E009B06A5
S113087006D52027002000F07DF9E3781F42F9D146
S113088010222A4CA37813432022A370A378134385
S11308900222A3702571E3781A42FCD00222E37885
S11308A000201343E37000F065F9022226711F4C07
S11308B0E3781A42FCD00222E37800201343E37069
S11308C000F058F90422A3781343A37001230222F1
S11308D01D432571154CE3781A42FCD00222E378BB
S11308E000201343E37000F045F91022A3789343EA
S11308F00822A3702379A37813430222A3700B4C1C
S1130900E3781A42FCD00222E37800201343E37018
S113091000F030F91022A37813432022A370A378A7
S11309209343A3702079C0B2F8BDC046006006406E
S1130930F0B5C64600B5234C8046E3780E0015009A
S11309409B0606D52027002000F014F9E3781F4207
S1130950F9D110221B4CA37813432022A370A3784F
S11309601343A370434602222371E3781A42FCD056
S11309700222E37800201343E37000F0FBF8022224
S11309802671104CE3781A42FCD00222E37800204E
S11309901343E37000F0EEF802222571094CE3786A
S11309A01A42FCD00222E37800201343E37000F0E3
S11309B0E1F82022A37801209343A37004BC90465D
S11309C0F0BDC0460060064080230A490A4ADB00A5
S11309D0885803438B500949094A8B6C1A40802379
S11309E05B0013438B648023064ADB0251690B438B
S11309F053617047007004403810000000A00440A8
S1130A00FFF8F0FF40F00F4080230A490A4ADB0058
S1130A10885803438B500949094ACB6C1A408023F8
S1130A205B001343CB648023064A1B0351690B43C9
S1130A3053617047007004403810000000A0044067
S1130A40FFF8F0FF40F00F4080230A490A4A5B0197
S1130A50885803438B500949094A4B681A4080233C
S1130A605B0013434B600221064A53690B435361F5
S1130A707047C046007004403810000000C00440B5
S1130A80FFF8F0FFC0F00F40034A044913688004E4
S1130A900B4018431060704740F00F40FFFFFBFF0E
S1130AA0034A04491368C0040B401843106070479C
S1130AB040F00F40FFFFF7FF0221034A4000136894
S1130AC08B43184310607047C0F00F408023034AE3
S1130AD0DB02D1680B43D3607047C04640F00F403F
S1130AE08023034A1B03D1680B43D3607047C0467D
S1130AF040F00F400221024AD3680B43D360704791
S1130B00C0F00F408023034ADB0291680B439360DB
S1130B107047C04640F00F408023034A1B0391688E
S1130B200B4393607047C04640F00F400221024AD5
S1130B3093680B4393607047C0F00F408023034ACF
S1130B40DB0251680B4353607047C04640F00F40CE
S1130B508023034A1B0351680B4353607047C0460C
S1130B6040F00F400221024A53680B435360704720
S1130B70C0F00F40082814D82C4B80001B589F4607
S1130B8080222B4BD20259680A435A60802259684A
S1130B9012030A435A600221264A53680B435360E6
S1130BA070478022224BD20299680A439A608022BD
S1130BB0996812030A439A6002211E4A93680B4300
S1130BC09360EDE780221A4BD20259680A435A60B7
S1130BD08022996812030A439A60DCE78022144B4E
S1130BE0D20259680A435A608022596812030A43A0
S1130BF05A60E1E780220E4BD20259680A435A60D8
S1130C00D5E780220A4BD20299680A439A60EBE73F
S1130C108022074BD20299680A439A60D8E780225F
S1130C20034BD20299680A439A60AFE7000D0000B3
S1130C3040F00F40C0F00F408020F0B5C6461D4A7A
S1130C401D4BC000D15800B50143D15080211B4D2C
S1130C5080461B4FA86C490038401A4C0843A864CE
S1130C606069844680206646C0023043464660611F
S1130C70D0580643D650E86C38400843E8648020D6
S1130C8065690003284360618020D45840012043F3
S1130C90D0500D4A082053681F4039435160022147
S1130CA00A4A53690B435361FFF764FF04BC90463F
S1130CB0F0BDC046007004403810000000A004409D
S1130CC0FFF8F0FF40F00F4000C00440C0F00F40B8
S1130CD010B50820FFF74EFF10BDC04650060000B7
S1130CE05E0600008C0600009C060000AC060000B6
S1130CF0BC0600006C0600007C06000050060000E4
S1130D00800B0000A20B0000F40B0000020C00009A
S1130D10100C00001E0C0000C40B0000DC0B0000D3
S1070D20800B000040
S9030131CA
