S0110000693263305F746573742E73726563C6
S11300000030002031010000C1000000C5000000E4
S1130010C1000000C1000000C1000000C1000000D8
S1130020C1000000C1000000C1000000C1000000C8
S1130030C1000000C1000000C1000000C1000000B8
S1130040C1000000C1000000C1000000C1000000A8
S1130050C1000000C1000000C1000000C100000098
S1130060C1000000C1000000C1000000C100000088
S1130070C1000000C1000000C1000000C100000078
S1130080C1000000C1000000C1000000C100000068
S1130090C1000000C1000000C1000000C100000058
S11300A0C1000000C1000000C1000000C100000048
S11300B0C1000000C1000000C1000000C100000038
S11300C0FEE7C046FEE7C04680231249124A9B0160
S11300D0885810B503438B50104B11495A680224B9
S11300E00A405A608022596852000A435A600D4AF5
S11300F05069A04350615968214359600221136932
S11301001942FCD00349044A07488B5803408B50DA
S113011010BDC046007004403810000000D00440F8
S1130120FFF8FFFF00F10F40FFDFFFFFC046C046AE
S1130130FFF7CAFF88220021364B520199503648F6
S1130140364A90608022364892001C5822431A5046
S1130150344A354898501A683448024080201A605E
S1130160334A40029C58204398509858314C0440DC
S113017080204004204398502F4B304C986C2040F2
S11301809864DA6C2240DA6424222D4B19702D4BCA
S11301905A7074321A70D878793A0240DA700122AF
S11301A01A71597110319A791142FCD10C21254AE6
S11301B093790B40082BFBD1402138335371214AEA
S11301C093791942FCD0182313700C221D498B79A2
S11301D013400C2BFBD11C4B1C4A93420CD2D94329
S11301E089180022890801311948890084589C50D3
S11301F004328A42FAD19B18164A934208D8032142
S1130200D21A8A430021181D121802C39342FCD14A
S113021000F0FEF8007004400000000000ED00E073
S1130220381000004410000000000110FFFFF3FF2D
S113023004100000FFFFFFFC00900440FFF8FFFEE5
S1130240005006400040064000F0FF1F00F0FF1F72
S11302501809000000F0FF1F00000000000000006B
S1130260000000000000000000000000000000008A
S1130270000000000000000000000000000000007A
S1130280000000000000000000000000000000006A
S1130290000000000000000000000000000000005A
S11302A0000000000000000000000000000000004A
S11302B0000000000000000000000000000000003A
S11302C0000000000000000000000000000000002A
S11302D0000000000000000000000000000000001A
S11302E0000000000000000000000000000000000A
S11302F000000000000000000000000000000000FA
S113030000000000000000000000000000000000E9
S113031000000000000000000000000000000000D9
S113032000000000000000000000000000000000C9
S113033000000000000000000000000000000000B9
S113034000000000000000000000000000000000A9
S11303500000000000000000000000000000000099
S11303600000000000000000000000000000000089
S11303700000000000000000000000000000000079
S11303800000000000000000000000000000000069
S11303900000000000000000000000000000000059
S11303A00000000000000000000000000000000049
S11303B00000000000000000000000000000000039
S11303C00000000000000000000000000000000029
S11303D00000000000000000000000000000000019
S11303E00000000000000000000000000000000009
S11303F000000000000000000000000000000000F9
S1130400FFFFFFFFFFFFFFFFFFFFFFFF7EF7FFFF81
S113041010B500F065F900F0B5F900F0C7F80D214A
S11304201A2000F0DBF91A2801D100F0D3F82A21B0
S113043001221A2000F026FA2A211A2000F0CEF90F
S1130440012801D100F0BCF8012400211A2000F099
S1130450C5F90442F9D001211A2000F0BFF90306BE
S113046002D400F0D3F8F0E700F0B4F8EDE7C046AA
S113047080230A490A4ADB00885803438B50094900
S1130480094A8B6C1A4080235B0013438B648023DE
S1130490064ADB0251690B43536170470070044004
S11304A03810000000A00440FFF8F0FF40F00F40B7
S11304B080230A490A4ADB00885803438B500949C0
S11304C0094ACB6C1A4080235B001343CB6480231E
S11304D0064A1B0351690B43536170470070044083
S11304E03810000000A00440FFF8F0FF40F00F4077
S11304F080230A490A4A5B01885803438B500949FF
S1130500094A4B681A4080235B0013434B60022165
S1130510064A53690B4353617047C0460070044058
S11305203810000000C00440FFF8F0FFC0F00F4096
S1130530034A0449136880040B4018431060704751
S113054040F00F40FFFFFBFF034A04491368C00457
S11305500B4018431060704740F00F40FFFFF7FF57
S11305600221034A400013688B431843106070470C
S1130570C0F00F408023034ADB02D1680B43D360F1
S11305807047C04640F00F408023034A1B03D168E4
S11305900B43D3607047C04640F00F400221024A2B
S11305A0D3680B43D3607047C0F00F408023034AE5
S11305B0DB0291680B4393607047C04640F00F40E4
S11305C08023034A1B0391680B4393607047C04622
S11305D040F00F400221024A93680B439360704736
S11305E0C0F00F408023034ADB0251680B43536081
S11305F07047C04640F00F408023034A1B035168F4
S11306000B4353607047C04640F00F400221024A3A
S113061053680B4353607047C0F00F40082814D848
S11306202C4B80001B589F4680222B4BD2025968CA
S11306300A435A608022596812030A435A6002210D
S1130640264A53680B43536070478022224BD202E0
S113065099680A439A608022996812030A439A604F
S113066002211E4A93680B439360EDE780221A4BE4
S1130670D20259680A435A608022996812030A43D5
S11306809A60DCE78022144BD20259680A435A600C
S11306908022596812030A435A60E1E780220E4B14
S11306A0D20259680A435A60D5E780220A4BD20223
S11306B099680A439A60EBE78022074BD202996853
S11306C00A439A60D8E78022034BD20299680A430E
S11306D09A60AFE7F408000040F00F40C0F00F400C
S11306E08020F0B5C6461D4A1D4BC000D15800B548
S11306F00143D15080211B4D80461B4FA86C4900FB
S113070038401A4C0843A8646069844680206646D1
S1130710C002304346466061D0580643D650E86C68
S113072038400843E8648020656900032843606119
S11307308020D45840012043D0500D4A08205368EB
S11307401F403943516002210A4A53690B435361E4
S1130750FFF764FF04BC9046F0BDC046007004403F
S11307603810000000A00440FFF8F0FF40F00F40F4
S113077000C00440C0F00F4010B50820FFF74EFF42
S113078010BDC04640200F4B0F495A5802435A50DF
S113079080220E499201585802435A50A0210C4A13
S11307A00C48136EC90003400B431366536E034099
S11307B0194351660F228021074B5A709A780A43D5
S11307C09A70704700700440341000003810000024
S11307D000D00440FFF8FFFF0060064030B5284A0F
S11307E0D3789B0607D51025202493782B43937048
S11307F0D3781C42F9D12024214B9A782243022435
S11308009A701871DA781442FCD00224DA78224300
S1130810DA70197102211A4AD3781942FCD00221E4
S1130820D3780B430421D37093780B439370012343
S113083002211843124B1071DA781142FCD00221C4
S1130840DA780A431021DA709A788A4308219A7078
S11308501A799A780A4302219A70094BDA7811427C
S1130860FCD00221DA780A431021DA709A780A431C
S113087020219A709A788A439A701879C0B230BD50
S11308800060064070B51A4CE3789B0607D5102625
S11308902025A3783343A370E3781D42F9D12025A2
S11308A0134B9C782C439C7002241871D878044212
S11308B0FCD00224D8782043D870022019710C4946
S11308C0CB781842FCD00220CB780343CB700A715A
S11308D00221074AD3781942FCD00221D37801209F
S11308E00B432021D37093788B43937070BDC04623
S11308F000600640280600004A0600009C0600002E
S1130900AA060000B8060000C60600006C06000037
S10B0910840600002806000023
S9030131CA
