S0110000693263305F746573742E73726563C6
S11300000030002031010000C1000000C5000000E4
S1130010C1000000C1000000C1000000C1000000D8
S1130020C1000000C1000000C1000000C1000000C8
S1130030C1000000C1000000C1000000C1000000B8
S1130040C1000000C1000000C1000000C1000000A8
S1130050C1000000C1000000C1000000C100000098
S1130060C1000000C1000000C1000000C100000088
S1130070C1000000C1000000C1000000C100000078
S1130080C1000000C1000000C1000000C100000068
S1130090C1000000C1000000C1000000C100000058
S11300A0C1000000C1000000C1000000C100000048
S11300B0C1000000C1000000C1000000C100000038
S11300C0FEE7C046FEE7C04680231249124A9B0160
S11300D0885810B503438B50104B11495A680224B9
S11300E00A405A608022596852000A435A600D4AF5
S11300F05069A04350615968214359600221136932
S11301001942FCD00349044A07488B5803408B50DA
S113011010BDC046007004403810000000D00440F8
S1130120FFF8FFFF00F10F40FFDFFFFFC046C046AE
S1130130FFF7CAFF88220021364B520199503648F6
S1130140364A90608022364892001C5822431A5046
S1130150344A354898501A683448024080201A605E
S1130160334A40029C58204398509858314C0440DC
S113017080204004204398502F4B304C986C2040F2
S11301809864DA6C2240DA6424222D4B19702D4BCA
S11301905A7074321A70D878793A0240DA700122AF
S11301A01A71597110319A791142FCD10C21254AE6
S11301B093790B40082BFBD1402138335371214AEA
S11301C093791942FCD0182313700C221D498B79A2
S11301D013400C2BFBD11C4B1C4A93420CD2D94329
S11301E089180022890801311948890084589C50D3
S11301F004328A42FAD19B18164A934208D8032142
S1130200D21A8A430021181D121802C39342FCD14A
S113021000F0FEF8007004400000000000ED00E073
S1130220381000004410000000000110FFFFF3FF2D
S113023004100000FFFFFFFC00900440FFF8FFFEE5
S1130240005006400040064000F0FF1F00F0FF1F72
S1130250C40C000000F0FF1F0000000000000000BC
S1130260000000000000000000000000000000008A
S1130270000000000000000000000000000000007A
S1130280000000000000000000000000000000006A
S1130290000000000000000000000000000000005A
S11302A0000000000000000000000000000000004A
S11302B0000000000000000000000000000000003A
S11302C0000000000000000000000000000000002A
S11302D0000000000000000000000000000000001A
S11302E0000000000000000000000000000000000A
S11302F000000000000000000000000000000000FA
S113030000000000000000000000000000000000E9
S113031000000000000000000000000000000000D9
S113032000000000000000000000000000000000C9
S113033000000000000000000000000000000000B9
S113034000000000000000000000000000000000A9
S11303500000000000000000000000000000000099
S11303600000000000000000000000000000000089
S11303700000000000000000000000000000000079
S11303800000000000000000000000000000000069
S11303900000000000000000000000000000000059
S11303A00000000000000000000000000000000049
S11303B00000000000000000000000000000000039
S11303C00000000000000000000000000000000029
S11303D00000000000000000000000000000000019
S11303E00000000000000000000000000000000009
S11303F000000000000000000000000000000000F9
S1130400FFFFFFFFFFFFFFFFFFFFFFFF7EF7FFFF81
S1130410F0B583B000F0B0FA00F05CFA00F022FB13
S11304204E4800F005FB69464D4B68461A68009239
S11304309A888A809B798B7100F0FAFA6A46494B54
S11304406846538000F0F4FA00F0AAF90D213A202E
S113045000F03CFB04001A287AD00F230340092B38
S11304607AD830336A462409E4B2D370092C6CD8A4
S11304703034E4B26B463C489C7000F0D9FA6846CC
S113048000F0D6FA01222A213A2000F085FB2A2125
S11304903A2000F01BFB0400012851D00F23034035
S11304A01A003732092B01D830331A006B4624095D
S11304B0E4B2DA70092C40D83034E4B26B460F252C
S11304C09C700124294800F0B3FA684600F0B0FAA1
S11304D0002000F09DF9264E00213A2000F0F6FAA3
S11304E00442F9D001213A2000F0F0FA2B00034035
S11304F01A0007023FB23732092B01D830331A00F1
S11305006B460009C0B2DA7009280FD83030C0B287
S11305106B469870300000F08BFA684600F088FA59
S1130520002F06DB002000F073F9D5E73730C0B2A6
S1130530EEE7072000F06CF9CEE73734E4B2BDE70C
S11305400C4800F075FA0123AEE73734E4B291E7C2
S1130550094800F06DFA0A23373383E7300C0000B2
S1130560980C0000313400004C0C00006C0C0000AE
S1130570800C00005C0C00003C0C000080230A4945
S11305800A4A9B00885803438B500949094A0B6D5A
S11305901A4080235B001343074A0B6553690749DC
S11305A00B4053617047C04600700440381000008F
S11305B000900440FFF8F0FF00F00F40FFFFEFFF52
S11305C080230949094A9B00885803438B500849F2
S11305D0084A0B6D1A40084B1343084A0B655369CC
S11305E007490B4053617047007004403810000005
S11305F000900440FFF8F0FF00010A0000F00F40F3
S1130600FFFFEFFF0120024B1B691B0D984370474E
S113061000F00F40024B1869C002C00F7047C0467B
S113062000F00F408022064952030B691342FCD1AB
S11306308022034952030B691342FCD07047C04621
S113064000F00F408022064952030B691342FCD08C
S11306508022034952030B691342FCD17047C04600
S113066000F00F4080230A490A4ADB0088580343FC
S11306708B500949094A8B6C1A4080235B00134351
S11306808B648023064ADB0251690B435361704734
S1130690007004403810000000A00440FFF8F0FF90
S11306A040F00F4080230A490A4ADB00885803437C
S11306B08B500949094ACB6C1A4080235B001343D1
S11306C0CB648023064A1B0351690B435361704773
S11306D0007004403810000000A00440FFF8F0FF50
S11306E040F00F4080230A490A4A5B0188580343BB
S11306F08B500949094A4B681A4080235B00134315
S11307004B600221064A53690B4353617047C0464C
S1130710007004403810000000C00440FFF8F0FFEF
S1130720C0F00F40034A0449136880040B40184387
S11307301060704740F00F40FFFFFBFF034A04497D
S11307401368C0040B4018431060704740F00F401A
S1130750FFFFF7FF0221034A400013688B4318434D
S113076010607047C0F00F408023034ADB02D16859
S11307700B43D3607047C04640F00F408023034AC8
S11307801B03D1680B43D3607047C04640F00F4051
S11307900221024AD3680B43D3607047C0F00F4074
S11307A08023034ADB0291680B4393607047C04681
S11307B040F00F408023034A1B0391680B4393606E
S11307C07047C04640F00F400221024A93680B4331
S11307D093607047C0F00F408023034ADB025168E6
S11307E00B4353607047C04640F00F408023034AD8
S11307F01B0351680B4353607047C04640F00F40E1
S11308000221024A53680B4353607047C0F00F4003
S1130810082814D82C4B80001B589F4680222B4B51
S1130820D20259680A435A608022596812030A4363
S11308305A600221264A53680B4353607047802252
S1130840224BD20299680A439A6080229968120363
S11308500A439A6002211E4A93680B439360EDE7B2
S113086080221A4BD20259680A435A60802299683E
S113087012030A439A60DCE78022144BD2025968BF
S11308800A435A608022596812030A435A60E1E716
S113089080220E4BD20259680A435A60D5E780225F
S11308A00A4BD20299680A439A60EBE78022074B0D
S11308B0D20299680A439A60D8E78022034BD20295
S11308C099680A439A60AFE7A00C000040F00F401B
S11308D0C0F00F408020F0B5C6461D4A1D4BC00035
S11308E0D15800B50143D15080211B4D80461B4F88
S11308F0A86C490038401A4C0843A86460698446CF
S113090080206646C002304346466061D0580643A4
S1130910D650E86C38400843E864802065690003D9
S1130920284360618020D45840012043D0500D4AB0
S1130930082053681F403943516002210A4A536911
S11309400B435361FFF764FF04BC9046F0BDC046FF
S1130950007004403810000000A00440FFF8F0FFCD
S113096040F00F4000C00440C0F00F4010B5082014
S1130970FFF74EFF10BDC0468022124B1249D20031
S1130980585810B502435A50802210489200195802
S1130990114319500E480F491C58214319500E4950
S11309A00E484B68034013434B608B6803401A4363
S11309B08A601A220C210A4B5A70DA780A43DA70D8
S11309C010BDC04600700440341000003810000010
S11309D0041000000000010400900440FFF8FFFF31
S11309E000A00640044900220B795BB2002B01DA17
S11309F0C87101321000704700A00640044A002369
S1130A001179890602D5D379037001231800704740
S1130A1000A00640024B18798006C00F7047C046FC
S1130A2000A00640014B1879C009704700A0064099
S1130A30017800290DD00A4A13795BB2002BFBDA46
S1130A4013795BB2002B00DAD171013001780029EF
S1130A50F2D1034A13795BB2002BFBDA7047C0462C
S1130A6000A006404020134B134910B55A580243C6
S1130A705A50802211499201585802435A50A021D9
S1130A800F4A1048136EC90003400B431366536E9C
S1130A900340194351660F2220210B4B5A705A7997
S1130AA00A4380215A719A780A439A70FFF712FF19
S1130AB010BDC0460070044034100000381000001F
S1130AC000D00440FFF8FFFF00600640F8B5314C49
S1130AD00500E3780E009B0606D520270020FFF7CB
S1130AE097FEE3781F42F9D110222A4CA3781343CE
S1130AF02022A370A37813430222A3702571E37804
S1130B001A42FCD00222E37800201343E370FFF77B
S1130B107FFE022226711F4CE3781A42FCD0022287
S1130B20E37800201343E370FFF772FE0422A378F6
S1130B301343A370012302221D432571154CE3784E
S1130B401A42FCD00222E37800201343E370FFF73B
S1130B505FFE1022A37893430822A3702379A3781D
S1130B6013430222A3700B4CE3781A42FCD00222F6
S1130B70E37800201343E370FFF74AFE1022A378C2
S1130B8013432022A370A3789343A3702079C0B2A7
S1130B90F8BDC04600600640F0B5C64600B5234C1B
S1130BA08046E3780E0015009B0606D5202700201A
S1130BB0FFF72EFEE3781F42F9D110221B4CA378D5
S1130BC013432022A370A3781343A3704346022245
S1130BD02371E3781A42FCD00222E3780020134305
S1130BE0E370FFF715FE02222671104CE3781A42D7
S1130BF0FCD00222E37800201343E370FFF708FEE1
S1130C0002222571094CE3781A42FCD00222E378CF
S1130C1000201343E370FFF7FBFD2022A37801209B
S1130C209343A37004BC9046F0BDC04600600640E8
S1130C300A0D73746172740A0D07000044657669C5
S1130C40636520466F756E640A0D07004375727202
S1130C50656E742056616C75653A0000446576696A
S1130C606365204F6E0A0D07000000004375727221
S1130C70656E742056616C75653A20307832610077
S1130C8043757272656E742056616C7565206F666B
S1130C9020307830313A0000307847470A0D0000A0
S1130CA01C0800003E080000900800009E08000098
S1130CB0AC080000BA0800006008000078080000D2
S1070CC01C08000008
S9030131CA
