S0110000693263305F746573742E73726563C6
S11300000030002031010000C1000000C5000000E4
S1130010C1000000C1000000C1000000C1000000D8
S1130020C1000000C1000000C1000000C1000000C8
S1130030C1000000C1000000C1000000C1000000B8
S1130040C1000000C1000000C1000000C1000000A8
S1130050C1000000C1000000C1000000C100000098
S1130060C1000000C1000000C1000000C100000088
S1130070C1000000C1000000C1000000C100000078
S1130080C1000000C1000000C1000000C100000068
S1130090C1000000C1000000C1000000C100000058
S11300A0C1000000C1000000C1000000C100000048
S11300B0C1000000C1000000C1000000C100000038
S11300C0FEE7C046FEE7C04680231249124A9B0160
S11300D0885810B503438B50104B11495A680224B9
S11300E00A405A608022596852000A435A600D4AF5
S11300F05069A04350615968214359600221136932
S11301001942FCD00349044A07488B5803408B50DA
S113011010BDC046007004403810000000D00440F8
S1130120FFF8FFFF00F10F40FFDFFFFFC046C046AE
S1130130FFF7CAFF88220021364B520199503648F6
S1130140364A90608022364892001C5822431A5046
S1130150344A354898501A683448024080201A605E
S1130160334A40029C58204398509858314C0440DC
S113017080204004204398502F4B304C986C2040F2
S11301809864DA6C2240DA6424222D4B19702D4BCA
S11301905A7074321A70D878793A0240DA700122AF
S11301A01A71597110319A791142FCD10C21254AE6
S11301B093790B40082BFBD1402138335371214AEA
S11301C093791942FCD0182313700C221D498B79A2
S11301D013400C2BFBD11C4B1C4A93420CD2D94329
S11301E089180022890801311948890084589C50D3
S11301F004328A42FAD19B18164A934208D8032142
S1130200D21A8A430021181D121802C39342FCD14A
S113021000F0FEF8007004400000000000ED00E073
S1130220381000004410000000000110FFFFF3FF2D
S113023004100000FFFFFFFC00900440FFF8FFFEE5
S1130240005006400040064000F0FF1F00F0FF1F72
S1130250900C000000F0FF1F0000000000000000F0
S1130260000000000000000000000000000000008A
S1130270000000000000000000000000000000007A
S1130280000000000000000000000000000000006A
S1130290000000000000000000000000000000005A
S11302A0000000000000000000000000000000004A
S11302B0000000000000000000000000000000003A
S11302C0000000000000000000000000000000002A
S11302D0000000000000000000000000000000001A
S11302E0000000000000000000000000000000000A
S11302F000000000000000000000000000000000FA
S113030000000000000000000000000000000000E9
S113031000000000000000000000000000000000D9
S113032000000000000000000000000000000000C9
S113033000000000000000000000000000000000B9
S113034000000000000000000000000000000000A9
S11303500000000000000000000000000000000099
S11303600000000000000000000000000000000089
S11303700000000000000000000000000000000079
S11303800000000000000000000000000000000069
S11303900000000000000000000000000000000059
S11303A00000000000000000000000000000000049
S11303B00000000000000000000000000000000039
S11303C00000000000000000000000000000000029
S11303D00000000000000000000000000000000019
S11303E00000000000000000000000000000000009
S11303F000000000000000000000000000000000F9
S1130400FFFFFFFFFFFFFFFFFFFFFFFF7EF7FFFF81
S1130410F0B583B000F0C2FA00F06EFA00F034FBDD
S11304204E4800F017FB69464D4B68461A68009227
S11304309A888A809B798B7100F00CFB6A46494B41
S11304406846538000F006FB00F0BCF90D213A2009
S113045000F04EFB04001A287AD00F230340092B26
S11304607AD830336A462409E4B2D370092C6CD8A4
S11304703034E4B26B463C489C7000F0EBFA6846BA
S113048000F0E8FA01222A213A2000F083FB2A2115
S11304903A2000F02DFB0400012851D00F23034023
S11304A01A003732092B01D830331A006B4624095D
S11304B0E4B2DA70092C40D83034E4B26B4601253A
S11304C00F262A489C7000F0C5FA684600F0C2FA6C
S11304D0002000F0AFF9264F00213A2000F008FB7D
S11304E00542F9D001213A2000F002FB320000025B
S11304F004B22312DBB21A4011003731092A01D8A1
S1130500303211006A461B09D1701A003732092BA8
S113051001D830331A006B4638009A7000F09AFA0A
S1130520684600F097FA002C03DB002000F082F903
S1130530D2E7072000F07EF9CEE73734E4B2BDE716
S11305400C4800F087FA0123AEE73734E4B291E7B0
S1130550094800F07FFA0A23373383E7FC0B0000D5
S1130560640C000031340000180C0000380C00004A
S11305704C0C0000280C0000080C000080230A49E1
S11305800A4A9B00885803438B500949094A0B6D5A
S11305901A4080235B001343074A0B6553690749DC
S11305A00B4053617047C04600700440381000008F
S11305B000900440FFF8F0FF00F00F40FFFFEFFF52
S11305C080231049104A9B00885803438B500F49DD
S11305D00F4A0B6DC7201A400E4B800013430E4A7E
S11305E00B6553690D490B40536180220C4BD205B6
S11305F01A601A580B4911408022D2030A431A5038
S11306007047C04600700440381000000090044059
S1130610FFF8F0FF00010A0000F00F40FFFFEFFFBA
S113062000E100E0FFFF00FF0120024B1B691B0DEE
S11306309843704700F00F40024B1869C002C00F86
S11306407047C04600F00F408022064952030B69F0
S11306501342FCD18022034952030B691342FCD09C
S11306607047C04600F00F408022064952030B69D0
S11306701342FCD08022034952030B691342FCD17C
S11306807047C04600F00F4080230A490A4ADB0045
S1130690885803438B500949094A8B6C1A408023BC
S11306A05B0013438B648023064ADB0251690B43CE
S11306B053617047007004403810000000A00440EB
S11306C0FFF8F0FF40F00F4080230A490A4ADB009C
S11306D0885803438B500949094ACB6C1A4080233C
S11306E05B001343CB648023064A1B0351690B430D
S11306F053617047007004403810000000A00440AB
S1130700FFF8F0FF40F00F4080230A490A4A5B01DA
S1130710885803438B500949094A4B681A4080237F
S11307205B0013434B600221064A53690B43536138
S11307307047C046007004403810000000C00440F8
S1130740FFF8F0FFC0F00F40034A04491368800427
S11307500B4018431060704740F00F40FFFFFBFF51
S1130760034A04491368C0040B40184310607047DF
S113077040F00F40FFFFF7FF0221034A40001368D7
S11307808B43184310607047C0F00F408023034A26
S1130790DB02D1680B43D3607047C04640F00F4082
S11307A08023034A1B03D1680B43D3607047C046C0
S11307B040F00F400221024AD3680B43D3607047D4
S11307C0C0F00F408023034ADB0291680B4393601F
S11307D07047C04640F00F408023034A1B039168D2
S11307E00B4393607047C04640F00F400221024A19
S11307F093680B4393607047C0F00F408023034A13
S1130800DB0251680B4353607047C04640F00F4011
S11308108023034A1B0351680B4353607047C0464F
S113082040F00F400221024A53680B435360704763
S1130830C0F00F40082814D82C4B80001B589F464A
S113084080222B4BD20259680A435A60802259688D
S113085012030A435A600221264A53680B43536029
S113086070478022224BD20299680A439A60802200
S1130870996812030A439A6002211E4A93680B4343
S11308809360EDE780221A4BD20259680A435A60FA
S11308908022996812030A439A60DCE78022144B91
S11308A0D20259680A435A608022596812030A43E3
S11308B05A60E1E780220E4BD20259680A435A601B
S11308C0D5E780220A4BD20299680A439A60EBE783
S11308D08022074BD20299680A439A60D8E78022A3
S11308E0034BD20299680A439A60AFE76C0C00008C
S11308F040F00F40C0F00F408020F0B5C6461D4ABE
S11309001D4BC000D15800B50143D15080211B4D6F
S113091080461B4FA86C490038401A4C0843A86411
S11309206069844680206646C00230434646606162
S1130930D0580643D650E86C38400843E864802019
S113094065690003284360618020D4584001204336
S1130950D0500D4A082053681F403943516002218A
S11309600A4A53690B435361FFF764FF04BC904682
S1130970F0BDC046007004403810000000A00440E0
S1130980FFF8F0FF40F00F4000C00440C0F00F40FB
S113099010B50820FFF74EFF10BDC0468022124B51
S11309A01249D200585810B502435A5080221048B8
S11309B092001958114319500E480F491C582143ED
S11309C019500E490E484B68034013434B608B6823
S11309D003401A438A601A220C210A4B5A70DA78AF
S11309E00A43DA7010BDC0460070044034100000A1
S11309F038100000041000000000010400900440BE
S1130A00FFF8FFFF00A00640044900220B795BB207
S1130A10002B01DAC87101321000704700A00640B3
S1130A20044A00231179890602D5D379037001237E
S1130A301800704700A00640024B18798006C00FCA
S1130A407047C04600A00640014B1879C0097047A2
S1130A5000A00640017800290DD00A4A13795BB240
S1130A60002BFBDA13795BB2002B00DAD171013071
S1130A7001780029F2D1034A13795BB2002BFBDA27
S1130A807047C04600A006404020134B134910B5E0
S1130A905A5802435A50802211499201585802432D
S1130AA05A50A0210F4A1048136EC90003400B434B
S1130AB01366536E0340194351660F2220210B4BDA
S1130AC05A705A790A4380215A719A780A439A7063
S1130AD0FFF712FF10BDC046007004403410000040
S1130AE03810000000D00440FFF8FFFF006006400B
S1130AF010B52024264AD3781C42FCD110249378C4
S1130B002343202493709378234302249370107119
S1130B101F4AD3781C42FCD00224D3782343D370D9
S1130B20117102211A4AD3781942FCD00221D378D8
S1130B300B430421D37093780B4393700123022158
S1130B401843134B1071DA781142FCD00221DA7881
S1130B500A431021DA709A788A4308219A701A7924
S1130B609A780A4302219A70094BDA781142FCD030
S1130B700221DA780A431021DA709A780A43202194
S1130B809A709A788A439A701879C0B210BDC04698
S1130B900060064030B52025174CE3781D42FCD197
S1130BA01025A3782B432025A370A3782B43A3708F
S1130BB0207102241048C3781C42FCD00224C3785C
S1130BC02343C370017102200B49CB781842FCD037
S1130BD00220CB780343CB700A710221064AD378F2
S1130BE01942FCD00221D37801200B432021D37079
S1130BF093788B43937030BD006006400A0D737484
S1130C006172740A0D0700004465766963652046C5
S1130C106F756E640A0D070043757272656E7420F9
S1130C2056616C75653A0000446576696365204FCA
S1130C306E0A0D070000000043757272656E742021
S1130C4056616C75653A2030783261004375727272
S1130C50656E742056616C7565206F66203078303F
S1130C60313A0000307847470A0D00004008000080
S1130C7062080000B4080000C2080000D0080000A8
S1130C80DE080000840800009C0800004008000002
S9030131CA
