S01900006D6F64666965645F693263305F746573742E7372656387
S11300000030002031010000C1000000C5000000E4
S1130010C1000000C1000000C1000000C1000000D8
S1130020C1000000C1000000C1000000C1000000C8
S1130030C1000000C1000000C1000000C1000000B8
S1130040C1000000C1000000C1000000C1000000A8
S1130050C1000000C1000000C1000000C100000098
S1130060C1000000C1000000C1000000C100000088
S1130070C1000000C1000000C1000000C100000078
S1130080C1000000C1000000C1000000C100000068
S1130090C1000000C1000000C1000000C100000058
S11300A0C1000000C1000000C1000000C100000048
S11300B0C1000000C100000089050000C10000006B
S11300C0FEE7C046FEE7C04680231249124A9B0160
S11300D0885810B503438B50104B11495A680224B9
S11300E00A405A608022596852000A435A600D4AF5
S11300F05069A04350615968214359600221136932
S11301001942FCD00349044A07488B5803408B50DA
S113011010BDC046007004403810000000D00440F8
S1130120FFF8FFFF00F10F40FFDFFFFFC046C046AE
S1130130FFF7CAFF88220021394B520199503948F0
S1130140394A90608022394892001C5822431A5040
S11301503748384A98501A683748024080201A6055
S1130160364A40029C58204398509858344C0440D6
S11301708020400420439850324B334C986C2040EC
S11301809864DA6C2240DA64304B314A19702423C3
S1130190537074331370D078793B0340D3700123C8
S11301A013715171103193791942FCD10C21284AF1
S11301B093790B40082BFBD1402138335371244AE7
S11301C093791942FCD0182313700C2220498B799F
S11301D013400C2BFBD11F4A1F4B9A421DD2D44310
S11301E0E4180023A10801311C488900C558D550E2
S11301F004338B42FAD103239C43231DD318184A9A
S1130200934208D80321D21A8A43002104329A184F
S113021002C39342FCD100F0FBF81300EFE7C046A1
S1130220007004400000000000ED00E03810000001
S11302300000011044100000FFFFF3FF0410000051
S1130240FFFFFFFC00900440FFF8FFFE0050064053
S11302500040064000F0FF1F00F0FF1F400E0000AA
S113026003F0FF1F00000000000000000000000079
S1130270000000000000000000000000000000007A
S1130280000000000000000000000000000000006A
S1130290000000000000000000000000000000005A
S11302A0000000000000000000000000000000004A
S11302B0000000000000000000000000000000003A
S11302C0000000000000000000000000000000002A
S11302D0000000000000000000000000000000001A
S11302E0000000000000000000000000000000000A
S11302F000000000000000000000000000000000FA
S113030000000000000000000000000000000000E9
S113031000000000000000000000000000000000D9
S113032000000000000000000000000000000000C9
S113033000000000000000000000000000000000B9
S113034000000000000000000000000000000000A9
S11303500000000000000000000000000000000099
S11303600000000000000000000000000000000089
S11303700000000000000000000000000000000079
S11303800000000000000000000000000000000069
S11303900000000000000000000000000000000059
S11303A00000000000000000000000000000000049
S11303B00000000000000000000000000000000039
S11303C00000000000000000000000000000000029
S11303D00000000000000000000000000000000019
S11303E00000000000000000000000000000000009
S11303F000000000000000000000000000000000F9
S1130400FFFFFFFFFFFFFFFFFFFFFFFF7EF7FFFF81
S1130410F0B5C64600B582B000F0DEFA00F08AFA04
S113042000F050FB00F010FC00F0E8F84D4800F03C
S11304302FFB69464C4B68461A6800929A888A805A
S11304409B798B7100F024FB6A4634236846D37091
S1130450033B937000F01CFB00F0D2F90D213A200D
S113046000F064FB04001A2876D00F230340092B04
S113047076D830336A462409E4B2D370092C68D89C
S11304803034E4B26B4639489C7000F001FB684696
S113049000F0FEFA01222A213A2000F09DFB2A21D5
S11304A03A2000F043FB040001284DD00F23034001
S11304B01A003732092B01D830331A006B4624094D
S11304C0E4B2DA70092C3CD83034E4B26B462848E4
S11304D09C7000F0DDFA684600F0DAFA002000F0C3
S11304E0C7F9244B012498460F25234F234E00219E
S11304F03A2000F01BFB0442F9D001213A2000F01D
S113050015FB4246030213802B00C0B203401A00BD
S11305103732092B01D830331A006B460009DA70E0
S113052003003733092800D8073B6A463800937024
S113053000F0AEFA684600F0ABFA307800F002FC46
S1130540D5E73734E4B2C1E70D4800F0A1FA01233E
S1130550B2E73734E4B295E70A4800F099FA0A237F
S1130560373387E7AC0D0000140E0000C80D0000FF
S1130570E80D000000F0FF1FFC0D000002F0FF1F5B
S1130580D80D0000B80D0000084B5B785BB2002B5F
S113059000DA5B42064A5BB21370A022802305494D
S11305A05B03885803438B507047C04600F0FF1F1D
S11305B002F0FF1F0090044080230A490A4A9B006E
S11305C0885803438B500949094A0B6D1A4080230C
S11305D05B001343074A0B65536907490B4053619A
S11305E07047C0460070044038100000009004407A
S11305F0FFF8F0FF00F00F40FFFFEFFF80231049EA
S1130600104A9B00885803438B500F490F4A0B6DC7
S1130610C7201A400E4B800013430E4A0B655369E2
S11306200D490B40536180220C4BD2051A601A58B5
S11306300B4911408022D2030A431A507047C04626
S1130640007004403810000000900440FFF8F0FFF0
S113065000010A0000F00F40FFFFEFFF00E100E09F
S1130660FFFF00FF0120024B1B691B0D98437047DD
S113067000F00F40024B1869C002C00F7047C0461B
S113068000F00F408022064952030B691342FCD14B
S11306908022034952030B691342FCD07047C046C1
S11306A000F00F408022064952030B691342FCD02C
S11306B08022034952030B691342FCD17047C046A0
S11306C000F00F4080230A490A4ADB00885803439C
S11306D08B500949094A8B6C1A4080235B001343F1
S11306E08B648023064ADB0251690B4353617047D4
S11306F0007004403810000000A00440FFF8F0FF30
S113070040F00F4080230A490A4ADB00885803431B
S11307108B500949094ACB6C1A4080235B00134370
S1130720CB648023064A1B0351690B435361704712
S1130730007004403810000000A00440FFF8F0FFEF
S113074040F00F4080230A490A4A5B01885803435A
S11307508B500949094A4B681A4080235B001343B4
S11307604B600221064A53690B4353617047C046EC
S1130770007004403810000000C00440FFF8F0FF8F
S1130780C0F00F40034A0449136880040B40184327
S11307901060704740F00F40FFFFFBFF034A04491D
S11307A01368C0040B4018431060704740F00F40BA
S11307B0FFFFF7FF0221034A400013688B431843ED
S11307C010607047C0F00F408023034ADB02D168F9
S11307D00B43D3607047C04640F00F408023034A68
S11307E01B03D1680B43D3607047C04640F00F40F1
S11307F00221024AD3680B43D3607047C0F00F4014
S11308008023034ADB0291680B4393607047C04620
S113081040F00F408023034A1B0391680B4393600D
S11308207047C04640F00F400221024A93680B43D0
S113083093607047C0F00F408023034ADB02516885
S11308400B4353607047C04640F00F408023034A77
S11308501B0351680B4353607047C04640F00F4080
S11308600221024A53680B4353607047C0F00F40A3
S1130870082814D82C4B80001B589F4680222B4BF1
S1130880D20259680A435A608022596812030A4303
S11308905A600221264A53680B43536070478022F2
S11308A0224BD20299680A439A6080229968120303
S11308B00A439A6002211E4A93680B439360EDE752
S11308C080221A4BD20259680A435A6080229968DE
S11308D012030A439A60DCE78022144BD20259685F
S11308E00A435A608022596812030A435A60E1E7B6
S11308F080220E4BD20259680A435A60D5E78022FF
S11309000A4BD20299680A439A60EBE78022074BAC
S1130910D20299680A439A60D8E78022034BD20234
S113092099680A439A60AFE71C0E000040F00F403C
S1130930C0F00F408020F0B5C6461D4A1D4BC000D4
S1130940D15800B50143D15080211B4D80461B4F27
S1130950A86C490038401A4C0843A864606984466E
S113096080206646C002304346466061D058064344
S1130970D650E86C38400843E86480206569000379
S1130980284360618020D45840012043D0500D4A50
S1130990082053681F403943516002210A4A5369B1
S11309A00B435361FFF764FF04BC9046F0BDC0469F
S11309B0007004403810000000A00440FFF8F0FF6D
S11309C040F00F4000C00440C0F00F4010B50820B4
S11309D0FFF74EFF10BDC0468022124B1249D200D1
S11309E0585810B502435A508022104892001958A2
S11309F0114319500E480F491C58214319500E49F0
S1130A000E484B68034013434B608B6803401A4302
S1130A108A601A220C210A4B5A70DA780A43DA7077
S1130A2010BDC046007004403410000038100000AF
S1130A30041000000000010400900440FFF8FFFFD0
S1130A4000A00640044900220B795BB2002B01DAB6
S1130A50C87101321000704700A00640044A002308
S1130A601179890602D5D3790370012318007047E0
S1130A7000A00640024B18798006C00F7047C0469C
S1130A8000A00640014B1879C009704700A0064039
S1130A90017800290CD00A4A13795BB2002BFBDAE7
S1130AA013795BB2002B09DB013001780029F3D103
S1130AB0034A13795BB2002BFBDA7047D171F3E779
S1130AC000A006404020134B134910B55A58024366
S1130AD05A50802211499201585802435A50A02179
S1130AE00F4A1048136EC90003400B431366536E3C
S1130AF00340194351660F2220210B4B5A705A7937
S1130B000A435A719A7860310A439A70FFF712FFC8
S1130B1010BDC046007004403410000038100000BE
S1130B2000D00440FFF8FFFF0060064010B5202409
S1130B30284AD3781C42FCD11024937823432024E0
S1130B409370937823430224DBB293701071214A8B
S1130B50D3781C42FCD00224D3782343DBB2D37075
S1130B60117102211B4AD3781942FCD00221D37897
S1130B700B430421DBB2D37093780B4393700123AE
S1130B8018431071134A0239D3781942FCD0022158
S1130B90D3780B431021DBB2D37093788B439370DB
S1130BA01379937808390B4393700A4A0639D3783A
S1130BB01942FCD00221D3780B431021DBB2D3704D
S1130BC093780B439370937810318B43937010791F
S1130BD0C0B210BD0060064030B52025194CE37842
S1130BE01D42FCD11025A3782B432025A370A378A4
S1130BF02B43DBB2A370207102241248C3781C4239
S1130C00FCD00224C3782343DBB2C37001710220F9
S1130C100C49CB781842FCD00220CB780343DBB2DA
S1130C20CB700A710221074AD3781942FCD0022101
S1130C30D37801200B432021DBB2D37093788B430C
S1130C40937030BD0060064080212D4B2D4AF0B5D5
S1130C509858C6464904242401430020802500B541
S1130C60294E99502949ED0408608E604C618861D1
S1130C709F583D439D50264AC02510609660D4601D
S1130C8010615461906108681C3C2043086011683D
S1130C90204E2143116080211F4AC90098581F4CDF
S1130CA008439850A06CAD0030402843A0641C4811
S1130CB0A8464769BC4680276546FF022F43454640
S1130CC047619F580F439F50E76C37403D43E564AD
S1130CD08024456924032C43446180209C584001AE
S1130CE0204398500F4A53683340194351600221FE
S1130CF00D4A53690B43536104BC9046F0BDC04692
S1130D00007004403C100000EF0F0000008003401E
S1130D1000A00340FFF8F0FF3810000000A00440DA
S1130D2040F00F4000C00440C0F00F40014B186178
S1130D307047C04600A00340014B98617047C0460D
S1130D4000A00340014B98617047C04600800340F7
S1130D50FF22014B1A61704700A00340FF22014BA0
S1130D609A61704700A00340FF22014B9A617047CB
S1130D70008003400022014B1A61704700A0034029
S1130D800022014B9A61704700A003400022014BEE
S1130D909A61704700800340024B18619961024BCD
S1130DA09A61704700A00340008003400A0D7374E9
S1130DB06172740A0D070000446576696365204614
S1130DC06F756E640A0D070043757272656E742048
S1130DD056616C75653A0000446576696365204F19
S1130DE06E0A0D070000000043757272656E742070
S1130DF056616C75653A20307832610043757272C1
S1130E00656E742056616C7565206F66203078308D
S1130E10313A0000307847470A0D00007C08000092
S1130E209E080000F0080000FE0800000C09000005
S1130E301A090000C0080000D80800007C0800005F
S9030131CA
