S0130000736C696465725F746573742E737265636F
S11300000030002031010000C1000000C5000000E4
S1130010C1000000C1000000C1000000C1000000D8
S1130020C1000000C1000000C1000000C1000000C8
S1130030C1000000C1000000C1000000B1040000C4
S1130040C1000000C1000000C1000000C1000000A8
S1130050C1000000C1000000C1000000C100000098
S1130060C1000000C1000000C1000000C100000088
S1130070C1000000C1000000C1000000C100000078
S1130080C1000000C1000000C1000000C100000068
S1130090C1000000C1000000C1000000C100000058
S11300A0C1000000C1000000C1000000C100000048
S11300B0C1000000C1000000C1000000C100000038
S11300C0FEE7C046FEE7C04680231249124A9B0160
S11300D0885810B503438B50104B11495A680224B9
S11300E00A405A608022596852000A435A600D4AF5
S11300F05069A04350615968214359600221136932
S11301001942FCD00349044A07488B5803408B50DA
S113011010BDC046007004403810000000D00440F8
S1130120FFF8FFFF00F10F40FFDFFFFFC046C046AE
S1130130FFF7CAFF364A374B37499A608022374B5C
S11301409200585802435A50354A364999501A6811
S113015035490A4080211A60344A490298580143BB
S113016099509958324808408021490401439950D4
S1130170304B3148996C01409964DA6C002102409B
S1130180DA6424222D4B19702D4B5A7074321A7074
S1130190D878793A0240DA7001221A715971103113
S11301A09A791142FCD10C21254A93790B40082BF2
S11301B0FBD1402138335371214A93791942FCD041
S11301C0182313700C221E498B7913400C2BFBD17E
S11301D01C4B1D4A93420CD2D9438918002289082A
S11301E001311A48890084589C5004328A42FAD159
S11301F09B18174A934208D80321D21A8A43002134
S1130200181D121802C39342FCD100F001F9C04634
S11302100000000000ED00E0381000000070044011
S11302204410000000000110FFFFF3FF0410000061
S1130230FFFFFFFC00900440FFF8FFFE0050064063
S11302400040064000F0FF1F00F0FF1F7008000090
S113025001F0FF1F0000000000000000000000008B
S1130260000000000000000000000000000000008A
S1130270000000000000000000000000000000007A
S1130280000000000000000000000000000000006A
S1130290000000000000000000000000000000005A
S11302A0000000000000000000000000000000004A
S11302B0000000000000000000000000000000003A
S11302C0000000000000000000000000000000002A
S11302D0000000000000000000000000000000001A
S11302E0000000000000000000000000000000000A
S11302F000000000000000000000000000000000FA
S113030000000000000000000000000000000000E9
S113031000000000000000000000000000000000D9
S113032000000000000000000000000000000000C9
S113033000000000000000000000000000000000B9
S113034000000000000000000000000000000000A9
S11303500000000000000000000000000000000099
S11303600000000000000000000000000000000089
S11303700000000000000000000000000000000079
S11303800000000000000000000000000000000069
S11303900000000000000000000000000000000059
S11303A00000000000000000000000000000000049
S11303B00000000000000000000000000000000039
S11303C00000000000000000000000000000000029
S11303D00000000000000000000000000000000019
S11303E00000000000000000000000000000000009
S11303F000000000000000000000000000000000F9
S1130400FFFFFFFFFFFFFFFFFFFFFFFF7EF7FFFF81
S113041010B572B600F024F800F036F800F0C4F914
S113042000F04CF862B60D4C30BF00F037F80028ED
S1130430FAD000F06FF8A0420CD800F037F900F0C1
S113044017F830BF00F02AF80028EDD000F062F869
S1130450A042F2D900F00EF9F1E7C0467F3E000059
S113046088230C21014A5B01D1507047007004407D
S11304705521034A034BD1505531D1507047C046E2
S113048000700440041100000722024B1A60024A63
S11304905A60704710E000E080BB0000034B1878FE
S11304A0C0B2002801D000221A70704700F0FF1F6C
S11304B00122014B1A70704700F0FF1F20200849E9
S11304C0084A8B5803438B508021074B074A1A6014
S11304D01A680A431A601968054A0A431A60704781
S11304E00070044038100000005004400081800077
S11304F004000080024B18684007C00F7047C046D4
S113050000500440024B18680007C00F7047C046F3
S1130510005004400821064B064A5A601A681142EA
S1130520FCD104211A680A431A60586880B27047E3
S1130530005004400000409080230A490A4ADB002E
S1130540885803438B500949094A8B6C1A4080230D
S11305505B0013438B648023064ADB0251690B431F
S113056053617047007004403810000000A004403C
S1130570FFF8F0FF40F00F4080230A490A4ADB00ED
S1130580885803438B500949094ACB6C1A4080238D
S11305905B001343CB648023064A1B0351690B435E
S11305A053617047007004403810000000A00440FC
S11305B0FFF8F0FF40F00F4080230A490A4A5B012C
S11305C0885803438B500949094A4B681A408023D1
S11305D05B0013434B600221064A53690B4353618A
S11305E07047C046007004403810000000C004404A
S11305F0FFF8F0FFC0F00F40034A04491368800479
S11306000B4018431060704740F00F40FFFFFBFFA2
S1130610034A04491368C0040B4018431060704730
S113062040F00F40FFFFF7FF0221034A4000136828
S11306308B43184310607047C0F00F408023034A77
S1130640DB02D1680B43D3607047C04640F00F40D3
S11306508023034A1B03D1680B43D3607047C04611
S113066040F00F400221024AD3680B43D360704725
S1130670C0F00F408023034ADB0291680B43936070
S11306807047C04640F00F408023034A1B03916823
S11306900B4393607047C04640F00F400221024A6A
S11306A093680B4393607047C0F00F408023034A64
S11306B0DB0251680B4353607047C04640F00F4063
S11306C08023034A1B0351680B4353607047C046A1
S11306D040F00F400221024A53680B4353607047B5
S11306E0C0F00F40082814D82C4B80001B589F469C
S11306F080222B4BD20259680A435A6080225968DF
S113070012030A435A600221264A53680B4353607A
S113071070478022224BD20299680A439A60802251
S1130720996812030A439A6002211E4A93680B4394
S11307309360EDE780221A4BD20259680A435A604B
S11307408022996812030A439A60DCE78022144BE2
S1130750D20259680A435A608022596812030A4334
S11307605A60E1E780220E4BD20259680A435A606C
S1130770D5E780220A4BD20299680A439A60EBE7D4
S11307808022074BD20299680A439A60D8E78022F4
S1130790034BD20299680A439A60AFE74C08000001
S11307A040F00F40C0F00F408020F0B5C6461D4A0F
S11307B01D4BC000D15800B50143D15080211B4DC1
S11307C080461B4FA86C490038401A4C0843A86463
S11307D06069844680206646C002304346466061B4
S11307E0D0580643D650E86C38400843E86480206B
S11307F065690003284360618020D4584001204388
S1130800D0500D4A082053681F40394351600221DB
S11308100A4A53690B435361FFF764FF04BC9046D3
S1130820F0BDC046007004403810000000A0044031
S1130830FFF8F0FF40F00F4000C00440C0F00F404C
S113084010B50820FFF74EFF10BDC046F0060000AB
S11308501207000064070000720700008007000010
S11308608E070000340700004C070000F00600006B
S9030131CA
