S0170000746573745F70776D5F7267626C65642E73726563CB
S11300000030002031010000C1000000C5000000E4
S1130010C1000000C1000000C1000000C1000000D8
S1130020C1000000C1000000C1000000C1000000C8
S1130030C1000000C1000000C1000000A5040000D0
S1130040C1000000C1000000C1000000C1000000A8
S1130050C1000000C1000000C1000000C100000098
S1130060C1000000C1000000C1000000C100000088
S1130070C1000000C1000000C1000000C100000078
S1130080C1000000C1000000C1000000C100000068
S1130090C1000000C1000000C1000000C100000058
S11300A0C1000000C1000000C1000000C100000048
S11300B0C1000000C1000000C1000000C100000038
S11300C0FEE7C046FEE7C04680231249124A9B0160
S11300D0885810B503438B50104B11495A680224B9
S11300E00A405A608022596852000A435A600D4AF5
S11300F05069A04350615968214359600221136932
S11301001942FCD00349044A07488B5803408B50DA
S113011010BDC046007004403810000000D00440F8
S1130120FFF8FFFF00F10F40FFDFFFFFC046C046AE
S1130130FFF7CAFF364A374B37499A608022374B5C
S11301409200585802435A50354A364999501A6811
S113015035490A4080211A60344A490298580143BB
S113016099509958324808408021490401439950D4
S1130170304B3148996C01409964DA6C002102409B
S1130180DA6424222D4B19702D4B5A7074321A7074
S1130190D878793A0240DA7001221A715971103113
S11301A09A791142FCD10C21254A93790B40082BF2
S11301B0FBD1402138335371214A93791942FCD041
S11301C0182313700C221E498B7913400C2BFBD17E
S11301D01C4B1D4A93420CD2D9438918002289082A
S11301E001311A48890084589C5004328A42FAD159
S11301F09B18174A934208D80321D21A8A43002134
S1130200181D121802C39342FCD100F001F9C04634
S11302100000000000ED00E0381000000070044011
S11302204410000000000110FFFFF3FF0410000061
S1130230FFFFFFFC00900440FFF8FFFE0050064063
S11302400040064000F0FF1F00F0FF1F7C07000085
S113025001F0FF1F0000000000000000000000008B
S1130260000000000000000000000000000000008A
S1130270000000000000000000000000000000007A
S1130280000000000000000000000000000000006A
S1130290000000000000000000000000000000005A
S11302A0000000000000000000000000000000004A
S11302B0000000000000000000000000000000003A
S11302C0000000000000000000000000000000002A
S11302D0000000000000000000000000000000001A
S11302E0000000000000000000000000000000000A
S11302F000000000000000000000000000000000FA
S113030000000000000000000000000000000000E9
S113031000000000000000000000000000000000D9
S113032000000000000000000000000000000000C9
S113033000000000000000000000000000000000B9
S113034000000000000000000000000000000000A9
S11303500000000000000000000000000000000099
S11303600000000000000000000000000000000089
S11303700000000000000000000000000000000079
S11303800000000000000000000000000000000069
S11303900000000000000000000000000000000059
S11303A00000000000000000000000000000000049
S11303B00000000000000000000000000000000039
S11303C00000000000000000000000000000000029
S11303D00000000000000000000000000000000019
S11303E00000000000000000000000000000000009
S11303F000000000000000000000000000000000F9
S1130400FFFFFFFFFFFFFFFFFFFFFFFF7EF7FFFF81
S113041010B572B600F01EF800F030F800F09AF84B
S113042000F046F862B6002000F040F9002430BF26
S113043000F02EF80028FAD02000013400F0F2F881
S1130440E4B200F00FF830BF00F022F80028EED03C
S1130450F2E7C04688230C21014A5B01D150704762
S1130460007004405521034A034BD1505531D150FB
S11304707047C04600700440041100000722024B7C
S11304801A60024A5A60704710E000E080BB000026
S1130490034B1878C0B2002801D000221A707047AC
S11304A000F0FF1F0122014B1A70704700F0FF1F7C
S11304B080230A490A4A9B00885803438B50094900
S11304C0094A0B6D1A4080235B001343074A0B65EE
S11304D0536907490B4053617047C046007004409C
S11304E03810000000900440FFF8F0FF00F00F40C7
S11304F0FFFFEFFF0120024B1B691B0D9843704760
S113050000F00F40024B1869C002C00F7047C0468C
S113051000F00F408022064952030B691342FCD1BC
S11305208022034952030B691342FCD07047C04632
S113053000F00F408022064952030B691342FCD09D
S11305408022034952030B691342FCD17047C04611
S113055000F00F408021284B284A49049858F0B5F0
S113056001432824002080259950254E2549ED0477
S113057008608E604C6188619F583D439D50224ABB
S1130580224D10609660D4601061546190610868D7
S1130590203C2043086011681D4E214311608022D5
S11305A01C49D20058581C4C10435850A86C304079
S11305B01043A86480206769C002384360615858BA
S11305C010435850E86C30401043E864802065695B
S11305D000032843606180205C5840012043585048
S11305E00E494B6833401A434A6002210C4A53694E
S11305F00B435361F0BDC046007004403C10000042
S1130600EF0F00000080034000A0034000A004405E
S1130610FFF8F0FF3810000040F00F4000C0044025
S1130620C0F00F40014B01381861704700A003402F
S1130630014B01389861704700A00340014B013819
S11306409861704700800340FE22014B1A61704795
S113065000A00340FE22014B9A61704700A00340B2
S1130660FE22014B9A617047008003400022014B37
S11306701A61704700A003400022014B9A61704741
S113068000A003400022014B9A61704700800340A0
S1130690044B0138013918619961034B013A9A619D
S11306A07047C04600A003400080034008280AD8D1
S11306B0204B80001B589F4600231F4A13619361FF
S11306C01E4A93617047FE231B4A136193611B4AC0
S11306D09361F7E70023FE21174A13619161174ADA
S11306E09361EFE70022144B1A619A61134BFE32B7
S11306F09A61E7E70023104A1361FE3393610F4ABE
S11307009361DFE7FE2300210B4A136191610B4AD9
S11307109361D7E7FE22084B1A619A610022074BC6
S11307209A61CFE7FE23044A136100239361034ACD
S11307309361C7E75807000000A00340008003400E
S11307400023034A13619361024A93617047C046D0
S113075000A0034000800340B8060000C606000065
S1130760F40600000407000014070000240700003A
S10F0770D4060000E4060000B8060000F7
S9030131CA
