S0130000746573745F636F707764742E7372656361
S11300000030002031010000C1000000C5000000E4
S1130010C1000000C1000000C1000000C1000000D8
S1130020C1000000C1000000C1000000C1000000C8
S1130030C1000000C1000000C10000009D080000D4
S1130040C1000000C1000000C1000000C1000000A8
S1130050C1000000C1000000C1000000C100000098
S1130060C1000000C1000000C1000000C100000088
S1130070C1000000C1000000C1000000C100000078
S1130080C1000000C1000000C1000000C100000068
S1130090C1000000C1000000C1000000C100000058
S11300A0C1000000C1000000C1000000C100000048
S11300B0C1000000C1000000C1000000C100000038
S11300C0FEE7C046FEE7C04680231249124A9B0160
S11300D0885810B503438B50104B11495A680224B9
S11300E00A405A608022596852000A435A600D4AF5
S11300F05069A04350615968214359600221136932
S11301001942FCD00349044A07488B5803408B50DA
S113011010BDC046007004403810000000D00440F8
S1130120FFF8FFFF00F10F40FFDFFFFFC046C046AE
S1130130FFF7CAFF364A374B37499A608022374B5C
S11301409200585802435A50354A364999501A6811
S113015035490A4080211A60344A490298580143BB
S113016099509958324808408021490401439950D4
S1130170304B3148996C01409964DA6C002102409B
S1130180DA6424222D4B19702D4B5A7074321A7074
S1130190D878793A0240DA7001221A715971103113
S11301A09A791142FCD10C21254A93790B40082BF2
S11301B0FBD1402138335371214A93791942FCD041
S11301C0182313700C221E498B7913400C2BFBD17E
S11301D01C4B1D4A93420CD2D9438918002289082A
S11301E001311A48890084589C5004328A42FAD159
S11301F09B18174A934208D80321D21A8A43002134
S1130200181D121802C39342FCD100F00DF9C04628
S11302100000000000ED00E0381000000070044011
S11302204410000000000110FFFFF3FF0410000061
S1130230FFFFFFFC00900440FFF8FFFE0050064063
S11302400040064000F0FF1F00F0FF1FF40800000C
S113025001F0FF1F0000000000000000000000008B
S1130260000000000000000000000000000000008A
S1130270000000000000000000000000000000007A
S1130280000000000000000000000000000000006A
S1130290000000000000000000000000000000005A
S11302A0000000000000000000000000000000004A
S11302B0000000000000000000000000000000003A
S11302C0000000000000000000000000000000002A
S11302D0000000000000000000000000000000001A
S11302E0000000000000000000000000000000000A
S11302F000000000000000000000000000000000FA
S113030000000000000000000000000000000000E9
S113031000000000000000000000000000000000D9
S113032000000000000000000000000000000000C9
S113033000000000000000000000000000000000B9
S113034000000000000000000000000000000000A9
S11303500000000000000000000000000000000099
S11303600000000000000000000000000000000089
S11303700000000000000000000000000000000079
S11303800000000000000000000000000000000069
S11303900000000000000000000000000000000059
S11303A00000000000000000000000000000000049
S11303B00000000000000000000000000000000039
S11303C00000000000000000000000000000000029
S11303D00000000000000000000000000000000019
S11303E00000000000000000000000000000000009
S11303F000000000000000000000000000000000F9
S1130400FFFFFFFFFFFFFFFFFFFFFFFF7EF7FFFF81
S1130410044B82B00193019B5A1E0192002BFAD126
S113042002B070470053070010B588B000F03CFAE2
S113043000F0CEF900F02AF91F4B0293029B5A1EDA
S11304400292002BFAD100F021F91B4B0193019B7E
S11304505A1E0192002BFAD100F018F9164B0093A2
S1130460009B5A1E0092002BFAD100F047F9124C5F
S113047000F002F90794079B5A1E0792002BFAD149
S11304800694069B5A1E0692002BFAD10594059BEE
S11304905A1E0592002BFAD10494049B5A1E04920E
S11304A0002BFAD10394039B5A1E0392002BFAD11A
S11304B000F002FADCE7C0460053070080230A4933
S11304C00A4A9B00885803438B500949094A0B6D1B
S11304D01A4080235B001343074A0B65536907499D
S11304E00B4053617047C046007004403810000050
S11304F000900440FFF8F0FF00F00F40FFFFEFFF13
S11305000120024B1B691B0D9843704700F00F40FC
S1130510024B1869C002C00F7047C04600F00F407C
S11305208022064952030B691342FCD180220349FD
S113053052030B691342FCD07047C04600F00F40D1
S11305408022064952030B691342FCD080220349DE
S113055052030B691342FCD17047C04600F00F40B0
S113056080230A490A4ADB00885803438B5009490F
S1130570094A8B6C1A4080235B0013438B648023ED
S1130580064ADB0251690B43536170470070044013
S11305903810000000A00440FFF8F0FF40F00F40C6
S11305A080230A490A4ADB00885803438B500949CF
S11305B0094ACB6C1A4080235B001343CB6480232D
S11305C0064A1B0351690B43536170470070044092
S11305D03810000000A00440FFF8F0FF40F00F4086
S11305E080230A490A4A5B01885803438B5009490E
S11305F0094A4B681A4080235B0013434B60022175
S1130600064A53690B4353617047C0460070044067
S11306103810000000C00440FFF8F0FFC0F00F40A5
S1130620034A0449136880040B4018431060704760
S113063040F00F40FFFFFBFF034A04491368C00466
S11306400B4018431060704740F00F40FFFFF7FF66
S11306500221034A400013688B431843106070471B
S1130660C0F00F408023034ADB02D1680B43D36000
S11306707047C04640F00F408023034A1B03D168F3
S11306800B43D3607047C04640F00F400221024A3A
S1130690D3680B43D3607047C0F00F408023034AF4
S11306A0DB0291680B4393607047C04640F00F40F3
S11306B08023034A1B0391680B4393607047C04631
S11306C040F00F400221024A93680B439360704745
S11306D0C0F00F408023034ADB0251680B43536090
S11306E07047C04640F00F408023034A1B03516803
S11306F00B4353607047C04640F00F400221024A4A
S113070053680B4353607047C0F00F40082814D857
S11307102C4B80001B589F4680222B4BD2025968D9
S11307200A435A608022596812030A435A6002211C
S1130730264A53680B43536070478022224BD202EF
S113074099680A439A608022996812030A439A605E
S113075002211E4A93680B439360EDE780221A4BF3
S1130760D20259680A435A608022996812030A43E4
S11307709A60DCE78022144BD20259680A435A601B
S11307808022596812030A435A60E1E780220E4B23
S1130790D20259680A435A60D5E780220A4BD20232
S11307A099680A439A60EBE78022074BD202996862
S11307B00A439A60D8E78022034BD20299680A431D
S11307C09A60AFE7D008000040F00F40C0F00F403F
S11307D08020F0B5C6461D4A1D4BC000D15800B557
S11307E00143D15080211B4D80461B4FA86C49000A
S11307F038401A4C0843A8646069844680206646E1
S1130800C002304346466061D0580643D650E86C77
S113081038400843E8648020656900032843606128
S11308208020D45840012043D0500D4A08205368FA
S11308301F403943516002210A4A53690B435361F3
S1130840FFF764FF04BC9046F0BDC046007004404E
S11308503810000000A00440FFF8F0FF40F00F4003
S113086000C00440C0F00F4010B50820FFF74EFF51
S113087010BDC0460722024B1A60024A5A607047F4
S113088010E000E080BB0000034B1878C0B20028E1
S113089001D000221A70704700F0FF1F0122014BA3
S11308A01A70704700F0FF1F88230C21014A5B0176
S11308B0D1507047007004405521034A034BD15076
S11308C05531D1507047C0460070044004110000F7
S11308D0180700003A0700008C0700009A07000080
S11308E0A8070000B60700005C07000074070000BA
S10708F018070000E1
S9030131CA
