S00F000061737369676E342E737265635C
S11300000030002031010000C1000000C5000000E4
S1130010C1000000C1000000C1000000C1000000D8
S1130020C1000000C1000000C1000000C1000000C8
S1130030C1000000C1000000C10000001104000064
S1130040C1000000C1000000C1000000C1000000A8
S1130050C1000000C1000000C1000000C100000098
S1130060C1000000C1000000C1000000C100000088
S1130070C1000000C1000000C1000000C100000078
S1130080C1000000C1000000C1000000C100000068
S1130090C1000000C1000000C1000000C100000058
S11300A0C1000000C1000000C1000000C100000048
S11300B0C1000000C1000000C1000000C100000038
S11300C0FEE7C046FEE7C04680231249124A9B0160
S11300D0885810B503438B50104B11495A680224B9
S11300E00A405A608022596852000A435A600D4AF5
S11300F05069A04350615968214359600221136932
S11301001942FCD00349044A07488B5803408B50DA
S113011010BDC046007004403810000000D00440F8
S1130120FFF8FFFF00F10F40FFDFFFFFC046C046AE
S1130130FFF7CAFF374A384B38499A608022384B58
S11301409200585802435A50364A374999501A680F
S113015036490A4080211A60354A490298580143B9
S113016099509958334808408021490401439950D3
S1130170314B3248996C014099640021DA6C024099
S1130180DA642F4B2F4A197024235370743313707D
S1130190D078793B0340D37001231371517110312E
S11301A093791942FCD10C21264A93790B40082BF0
S11301B0FBD1402138335371224A93791942FCD040
S11301C0182313700C221F498B7913400C2BFBD17D
S11301D01D4A1E4B9A421AD2013B991A00238908E0
S11301E001311B488900C458D45004338B42FAD1DE
S11301F0D318184A934208D80321D21A8A43191DE6
S11302005218002102C39342FCD100F007F91300F5
S1130210EFE7C0460000000000ED00E038100000E9
S1130220007004404410000000000110FFFFF3FFC1
S113023004100000FFFFFFFC00900440FFF8FFFEE5
S1130240005006400040064000F0FF1F04F0FF1F6E
S11302503C0700000DF0FF1F00000000000000003C
S1130260000000000000000000000000000000008A
S1130270000000000000000000000000000000007A
S1130280000000000000000000000000000000006A
S1130290000000000000000000000000000000005A
S11302A0000000000000000000000000000000004A
S11302B0000000000000000000000000000000003A
S11302C0000000000000000000000000000000002A
S11302D0000000000000000000000000000000001A
S11302E0000000000000000000000000000000000A
S11302F000000000000000000000000000000000FA
S113030000000000000000000000000000000000E9
S113031000000000000000000000000000000000D9
S113032000000000000000000000000000000000C9
S113033000000000000000000000000000000000B9
S113034000000000000000000000000000000000A9
S11303500000000000000000000000000000000099
S11303600000000000000000000000000000000089
S11303700000000000000000000000000000000079
S11303800000000000000000000000000000000069
S11303900000000000000000000000000000000059
S11303A00000000000000000000000000000000049
S11303B00000000000000000000000000000000039
S11303C00000000000000000000000000000000029
S11303D00000000000000000000000000000000019
S11303E00000000000000000000000000000000009
S11303F000000000000000000000000000000000F9
S1130400FFFFFFFFFFFFFFFFFFFFFFFF7EF7FFFF81
S11304100122014B1A7070470CF0FF1FF0B5DE4645
S113042057464E464546E0B572B688220C21A54B88
S113043052019950A0220224A34952015858C025C0
S11304400243A2485A504269AD00224342618020CF
S11304509F4AC000506080209E4AC00254692043D5
S1130460506180209C4C0003A56456693043506160
S113047080229A48E5641C585204FE26224307242D
S113048080251A50964AED04146096601F583D4327
S11304901D50242508279348046086605561C56073
S11304A0456116683E43166005683D4305608E4D00
S11304B02C608E4C6C6080245D58A4002C435C50EE
S11304C08B4B8C4C196D2140196580211C6D4900A2
S11304D02143196562B6884994468846874A884903
S11304E00123894600259246864C874E30BF2278E8
S11304F0002AFBD02570002B00D1A5E0013B327807
S1130500062A00D9A8E0814992008A5897464346B2
S113051042461B88802101339BB2138052461269E4
S113052049030A4200D0AFE0FA22D200934201D933
S1130530062333700C236246056185619361744B15
S113054055276049734A8F5055378F50CEE743463D
S113055042461B88802101339BB2138052461269A4
S113056049030A4200D088E06B4A934201D905232B
S113057033700C230561836163469D61644BDFE73F
S1130580434642461B88802101339BB21380524666
S1130590126949030A4261D1FA229200934201D9B5
S11305A0042333700C230361634685619D61584BBA
S11305B0C6E7434642461B88802101339BB2138021
S11305C05246126949030A4265D1FA225200934203
S11305D001D903233370042330E042464146128894
S11305E08027013292B20A80514609697F03394259
S11305F032D1052A01D902223270484A474F517834
S11306003F7892780761816161468A6198E7524632
S113061080218027126949037F0311403A42ECD1BB
S11306200122327042461180E7E7534680211A695D
S1130630802349035B0313400A4236D162460361B7
S113064083619361324B7BE7FF22036182616246DF
S11306509361FA239B0052E73570CEE74B462F4A4D
S113066035701A6013002D495A7809789B78016116
S1130670826162469361264B62E74A46274B357096
S113068001331360254BEEE74A46244B35700233A1
S11306901360224BE7E74B461A680F231178357035
S11306A001310B4013701D4BDDE71C4B1B4A1D80B1
S11306B00023937063463570056185619D61144B19
S11306C03EE7C0460070044038100000C0F00F4000
S11306D000C0044040F00F4000A004403C10000063
S11306E00080034000A0034010E000E080BB000055
S11306F000900440FFF8FFFF04F0FF1F00F00F40DC
S113070000F0FF1F0CF0FF1F0BF0FF1F200700007D
S113071060EA000004110000DC05000008F0FF1F7F
S11307200E060000DA050000B20500008005000096
S10F07304E0500000E0500002A06000023
S107073C08F0FF1F9F
S9030131CA
